:100ABD00120AD0D2CC7FF4120AE0C2CC7FF4120A13
:030ACD00E080F0D6
:100AD000750910E4F508FB7A0079087F0502080023
:0F0AE0007D607C09ED1D70011C144C70F7DFF177
:010AEF0022E4
:010AFC0022D7
:10080000EFD394077480948040037F0122120A770B
:10081000FED394037480948040037F0222EF7044DF
:10082000EE700B900001120A90F452935294120A47
:10083000776401700B900001120A904293F4529475
:10084000120A77FE6402700A900001120A90429325
:100850004294EE6403700D900001120A90FEF4526F
:1008600093EE4294EF64017046120A77FE700B908B
:100870000001120A90F452915292EE6401700B90B2
:100880000001120A904291F45292120A77640270A7
:100890000A900001120A9042914292120A77640370
:1008A000700D900001120A90FEF45291EE4292EF08
:1008B00064027046120A77FE700B900001120A90D3
:1008C000F452955296EE6401700B900001120A905A
:1008D0004295F45296120A776402700A900001124F
:1008E0000A9042954296120A776403700D900001B7
:1008F000120A90FEF45295EE4296EF64037046128F
:100900000A77FE700B900001120A90F452B152B2B5
:10091000EE6401700B900001120A9042B1F452B2E1
:10092000120A776402700A900001120A9042B142E2
:10093000B2120A776403700D900001120A90FEF45F
:1009400052B1EE42B2EF64047046120A77FE700BA9
:10095000900001120A90F452B352B4EE6401700B8D
:10096000900001120A9042B3F452B4120A77640262
:10097000700A900001120A9042B342B4120A7764DE
:1009800003700D900001120A90FEF452B3EE42B4CF
:10099000EF64057046120A77FE700B900001120A90
:1009A00090F452C952CAEE6401700B900001120A11
:1009B0009042C9F452CA120A776402700A90000188
:1009C000120A9042C942CA120A776403700D90005D
:1009D00001120A90FEF452C9EE42CAEF6406704654
:1009E000120A77FE700B900001120A90F452CB525B
:1009F000CCEE6401700B900001120A9042CBF452CD
:100A0000CC120A776402700A900001120A9042CB5D
:100A100042CC120A776403700D900001120A90FE16
:100A2000F452CBEE42CCEF64077049120A77FF7E96
:100A300000700B900001120A90F452E152E2EF6450
:100A4000014E700B900001120A9042E1F452E21242
:100A50000A776402700A900001120A9042E142E2B1
:100A6000120A776403700D900001120A90FFF4528D
:070A7000E1EF42E27F0022EA
:03000000020AF001
:0C0AF000787FE4F6D8FD758109020ABD8C
:100A7700BB010689828A83E0225002E722BBFE027D
:090A8700E32289828A83E49322B0
:100A9000BB010CE58229F582E5833AF583E022501B
:100AA00006E92582F8E622BBFE06E92582F8E22265
:0D0AB000E58229F582E5833AF583E493227F
:00000001FF
